{
  "address": "0x271d5d3c377689d3763C90311f2cc2B75ee414ed",
  "abi": [
    {
      "inputs": [
        {
          "internalType": "address",
          "name": "vrfCoordinatorV2",
          "type": "address"
        },
        {
          "internalType": "bytes32",
          "name": "gasLane",
          "type": "bytes32"
        },
        {
          "internalType": "uint64",
          "name": "subscriptionId",
          "type": "uint64"
        },
        {
          "internalType": "uint32",
          "name": "callbackGasLimit",
          "type": "uint32"
        },
        {
          "internalType": "string[3]",
          "name": "dogTokenUris",
          "type": "string[3]"
        },
        {
          "internalType": "uint256",
          "name": "mintFee",
          "type": "uint256"
        }
      ],
      "stateMutability": "nonpayable",
      "type": "constructor"
    },
    {
      "inputs": [
        {
          "internalType": "address",
          "name": "have",
          "type": "address"
        },
        {
          "internalType": "address",
          "name": "want",
          "type": "address"
        }
      ],
      "name": "OnlyCoordinatorCanFulfill",
      "type": "error"
    },
    {
      "inputs": [],
      "name": "RandomIPFSNft_NeedMoreETH",
      "type": "error"
    },
    {
      "inputs": [],
      "name": "RandomIPFSNft_RangeOutOfBounds",
      "type": "error"
    },
    {
      "inputs": [],
      "name": "RandomIPFSNft_TransferFailed",
      "type": "error"
    },
    {
      "anonymous": false,
      "inputs": [
        {
          "indexed": true,
          "internalType": "address",
          "name": "owner",
          "type": "address"
        },
        {
          "indexed": true,
          "internalType": "address",
          "name": "approved",
          "type": "address"
        },
        {
          "indexed": true,
          "internalType": "uint256",
          "name": "tokenId",
          "type": "uint256"
        }
      ],
      "name": "Approval",
      "type": "event"
    },
    {
      "anonymous": false,
      "inputs": [
        {
          "indexed": true,
          "internalType": "address",
          "name": "owner",
          "type": "address"
        },
        {
          "indexed": true,
          "internalType": "address",
          "name": "operator",
          "type": "address"
        },
        {
          "indexed": false,
          "internalType": "bool",
          "name": "approved",
          "type": "bool"
        }
      ],
      "name": "ApprovalForAll",
      "type": "event"
    },
    {
      "anonymous": false,
      "inputs": [
        {
          "indexed": false,
          "internalType": "enum RandomIPFSNft.Breed",
          "name": "breed",
          "type": "uint8"
        },
        {
          "indexed": false,
          "internalType": "address",
          "name": "minter",
          "type": "address"
        }
      ],
      "name": "NftMinted",
      "type": "event"
    },
    {
      "anonymous": false,
      "inputs": [
        {
          "indexed": true,
          "internalType": "uint256",
          "name": "requestId",
          "type": "uint256"
        },
        {
          "indexed": false,
          "internalType": "address",
          "name": "requester",
          "type": "address"
        }
      ],
      "name": "NftRequested",
      "type": "event"
    },
    {
      "anonymous": false,
      "inputs": [
        {
          "indexed": true,
          "internalType": "address",
          "name": "previousOwner",
          "type": "address"
        },
        {
          "indexed": true,
          "internalType": "address",
          "name": "newOwner",
          "type": "address"
        }
      ],
      "name": "OwnershipTransferred",
      "type": "event"
    },
    {
      "anonymous": false,
      "inputs": [
        {
          "indexed": true,
          "internalType": "address",
          "name": "from",
          "type": "address"
        },
        {
          "indexed": true,
          "internalType": "address",
          "name": "to",
          "type": "address"
        },
        {
          "indexed": true,
          "internalType": "uint256",
          "name": "tokenId",
          "type": "uint256"
        }
      ],
      "name": "Transfer",
      "type": "event"
    },
    {
      "inputs": [
        {
          "internalType": "address",
          "name": "to",
          "type": "address"
        },
        {
          "internalType": "uint256",
          "name": "tokenId",
          "type": "uint256"
        }
      ],
      "name": "approve",
      "outputs": [],
      "stateMutability": "nonpayable",
      "type": "function"
    },
    {
      "inputs": [
        {
          "internalType": "address",
          "name": "owner",
          "type": "address"
        }
      ],
      "name": "balanceOf",
      "outputs": [
        {
          "internalType": "uint256",
          "name": "",
          "type": "uint256"
        }
      ],
      "stateMutability": "view",
      "type": "function"
    },
    {
      "inputs": [
        {
          "internalType": "uint256",
          "name": "tokenId",
          "type": "uint256"
        }
      ],
      "name": "getApproved",
      "outputs": [
        {
          "internalType": "address",
          "name": "",
          "type": "address"
        }
      ],
      "stateMutability": "view",
      "type": "function"
    },
    {
      "inputs": [
        {
          "internalType": "uint256",
          "name": "moddedRng",
          "type": "uint256"
        }
      ],
      "name": "getBreedFromModdedRng",
      "outputs": [
        {
          "internalType": "enum RandomIPFSNft.Breed",
          "name": "",
          "type": "uint8"
        }
      ],
      "stateMutability": "pure",
      "type": "function"
    },
    {
      "inputs": [],
      "name": "getChanceArray",
      "outputs": [
        {
          "internalType": "uint256[3]",
          "name": "",
          "type": "uint256[3]"
        }
      ],
      "stateMutability": "pure",
      "type": "function"
    },
    {
      "inputs": [
        {
          "internalType": "uint256",
          "name": "index",
          "type": "uint256"
        }
      ],
      "name": "getDogTokenUris",
      "outputs": [
        {
          "internalType": "string",
          "name": "",
          "type": "string"
        }
      ],
      "stateMutability": "view",
      "type": "function"
    },
    {
      "inputs": [],
      "name": "getMintFee",
      "outputs": [
        {
          "internalType": "uint256",
          "name": "",
          "type": "uint256"
        }
      ],
      "stateMutability": "view",
      "type": "function"
    },
    {
      "inputs": [],
      "name": "getTokenCounter",
      "outputs": [
        {
          "internalType": "uint256",
          "name": "",
          "type": "uint256"
        }
      ],
      "stateMutability": "view",
      "type": "function"
    },
    {
      "inputs": [
        {
          "internalType": "address",
          "name": "owner",
          "type": "address"
        },
        {
          "internalType": "address",
          "name": "operator",
          "type": "address"
        }
      ],
      "name": "isApprovedForAll",
      "outputs": [
        {
          "internalType": "bool",
          "name": "",
          "type": "bool"
        }
      ],
      "stateMutability": "view",
      "type": "function"
    },
    {
      "inputs": [],
      "name": "name",
      "outputs": [
        {
          "internalType": "string",
          "name": "",
          "type": "string"
        }
      ],
      "stateMutability": "view",
      "type": "function"
    },
    {
      "inputs": [],
      "name": "owner",
      "outputs": [
        {
          "internalType": "address",
          "name": "",
          "type": "address"
        }
      ],
      "stateMutability": "view",
      "type": "function"
    },
    {
      "inputs": [
        {
          "internalType": "uint256",
          "name": "tokenId",
          "type": "uint256"
        }
      ],
      "name": "ownerOf",
      "outputs": [
        {
          "internalType": "address",
          "name": "",
          "type": "address"
        }
      ],
      "stateMutability": "view",
      "type": "function"
    },
    {
      "inputs": [
        {
          "internalType": "uint256",
          "name": "requestId",
          "type": "uint256"
        },
        {
          "internalType": "uint256[]",
          "name": "randomWords",
          "type": "uint256[]"
        }
      ],
      "name": "rawFulfillRandomWords",
      "outputs": [],
      "stateMutability": "nonpayable",
      "type": "function"
    },
    {
      "inputs": [],
      "name": "renounceOwnership",
      "outputs": [],
      "stateMutability": "nonpayable",
      "type": "function"
    },
    {
      "inputs": [],
      "name": "requestNft",
      "outputs": [
        {
          "internalType": "uint256",
          "name": "requestId",
          "type": "uint256"
        }
      ],
      "stateMutability": "payable",
      "type": "function"
    },
    {
      "inputs": [
        {
          "internalType": "address",
          "name": "from",
          "type": "address"
        },
        {
          "internalType": "address",
          "name": "to",
          "type": "address"
        },
        {
          "internalType": "uint256",
          "name": "tokenId",
          "type": "uint256"
        }
      ],
      "name": "safeTransferFrom",
      "outputs": [],
      "stateMutability": "nonpayable",
      "type": "function"
    },
    {
      "inputs": [
        {
          "internalType": "address",
          "name": "from",
          "type": "address"
        },
        {
          "internalType": "address",
          "name": "to",
          "type": "address"
        },
        {
          "internalType": "uint256",
          "name": "tokenId",
          "type": "uint256"
        },
        {
          "internalType": "bytes",
          "name": "data",
          "type": "bytes"
        }
      ],
      "name": "safeTransferFrom",
      "outputs": [],
      "stateMutability": "nonpayable",
      "type": "function"
    },
    {
      "inputs": [
        {
          "internalType": "address",
          "name": "operator",
          "type": "address"
        },
        {
          "internalType": "bool",
          "name": "approved",
          "type": "bool"
        }
      ],
      "name": "setApprovalForAll",
      "outputs": [],
      "stateMutability": "nonpayable",
      "type": "function"
    },
    {
      "inputs": [
        {
          "internalType": "bytes4",
          "name": "interfaceId",
          "type": "bytes4"
        }
      ],
      "name": "supportsInterface",
      "outputs": [
        {
          "internalType": "bool",
          "name": "",
          "type": "bool"
        }
      ],
      "stateMutability": "view",
      "type": "function"
    },
    {
      "inputs": [],
      "name": "symbol",
      "outputs": [
        {
          "internalType": "string",
          "name": "",
          "type": "string"
        }
      ],
      "stateMutability": "view",
      "type": "function"
    },
    {
      "inputs": [
        {
          "internalType": "uint256",
          "name": "tokenId",
          "type": "uint256"
        }
      ],
      "name": "tokenURI",
      "outputs": [
        {
          "internalType": "string",
          "name": "",
          "type": "string"
        }
      ],
      "stateMutability": "view",
      "type": "function"
    },
    {
      "inputs": [
        {
          "internalType": "address",
          "name": "from",
          "type": "address"
        },
        {
          "internalType": "address",
          "name": "to",
          "type": "address"
        },
        {
          "internalType": "uint256",
          "name": "tokenId",
          "type": "uint256"
        }
      ],
      "name": "transferFrom",
      "outputs": [],
      "stateMutability": "nonpayable",
      "type": "function"
    },
    {
      "inputs": [
        {
          "internalType": "address",
          "name": "newOwner",
          "type": "address"
        }
      ],
      "name": "transferOwnership",
      "outputs": [],
      "stateMutability": "nonpayable",
      "type": "function"
    },
    {
      "inputs": [],
      "name": "withdraw",
      "outputs": [],
      "stateMutability": "nonpayable",
      "type": "function"
    }
  ],
  "transactionHash": "0x9f3d33d80bd30708f84e162675e50bd49e5e27cd76d0dc599318d2d6103800eb",
  "args": [
    "0x6168499c0cFfCaCD319c818142124B7A15E857ab",
    "0xd89b2bf150e3b9e13446986e571fb9cab24b13cea0a43ea20a6049a85cc807cc",
    "6687",
    "500000",
    [
      "ipfs://QmcosqFKqtM2mUte6yy5dKAc8Mn1UHf4BCTsyHgsygG83t",
      "ipfs://QmcReH9VbL6N3ZsKr1dBMmSRTqGu3Bb7iq4nXWMpWMy4Cf",
      "ipfs://QmbSdrVjj6MXBS4AGMk42FgKNkuMfxwWVaeDQBi7cUAd59"
    ],
    "100000000000000000"
  ],
  "numDeployments": 1,
  "solcInputHash": "561a25ad36a0eaaa591c103589a132d0",
  "bytecode": "0x6101206040523480156200001257600080fd5b50604051620041d2380380620041d28339818101604052810190620000389190620005d5565b6040518060400160405280600381526020017f4e465400000000000000000000000000000000000000000000000000000000008152506040518060400160405280600381526020017f6e66740000000000000000000000000000000000000000000000000000000000815250878073ffffffffffffffffffffffffffffffffffffffff1660808173ffffffffffffffffffffffffffffffffffffffff1660601b81525050508160009080519060200190620000f59291906200029c565b5080600190805190602001906200010e9291906200029c565b5050506200013162000125620001ce60201b60201c565b620001d660201b60201c565b8573ffffffffffffffffffffffffffffffffffffffff1660a08173ffffffffffffffffffffffffffffffffffffffff1660601b815250508460c081815250508367ffffffffffffffff1660e08167ffffffffffffffff1660c01b815250508263ffffffff166101008163ffffffff1660e01b8152505081600a906003620001ba9291906200032d565b5080600b8190555050505050505062000930565b600033905090565b6000600760009054906101000a900473ffffffffffffffffffffffffffffffffffffffff16905081600760006101000a81548173ffffffffffffffffffffffffffffffffffffffff021916908373ffffffffffffffffffffffffffffffffffffffff1602179055508173ffffffffffffffffffffffffffffffffffffffff168173ffffffffffffffffffffffffffffffffffffffff167f8be0079c531659141344cd1fd0a4f28419497f9722a3daafe3b4186f6b6457e060405160405180910390a35050565b828054620002aa90620007ba565b90600052602060002090601f016020900481019282620002ce57600085556200031a565b82601f10620002e957805160ff19168380011785556200031a565b828001600101855582156200031a579182015b8281111562000319578251825591602001919060010190620002fc565b5b50905062000329919062000394565b5090565b82805482825590600052602060002090810192821562000381579160200282015b82811115620003805782518290805190602001906200036f9291906200029c565b50916020019190600101906200034e565b5b509050620003909190620003b3565b5090565b5b80821115620003af57600081600090555060010162000395565b5090565b5b80821115620003d75760008181620003cd9190620003db565b50600101620003b4565b5090565b508054620003e990620007ba565b6000825580601f10620003fd57506200041e565b601f0160209004906000526020600020908101906200041d919062000394565b5b50565b6000620004386200043284620006b9565b62000690565b9050808285602086028201111562000455576200045462000889565b5b60005b85811015620004aa57815167ffffffffffffffff8111156200047f576200047e62000884565b5b8086016200048e89826200055d565b8552602085019450602084019350505060018101905062000458565b5050509392505050565b6000620004cb620004c584620006e2565b62000690565b905082815260208101848484011115620004ea57620004e96200088e565b5b620004f784828562000784565b509392505050565b6000815190506200051081620008ae565b92915050565b600082601f8301126200052e576200052d62000884565b5b60036200053d84828562000421565b91505092915050565b6000815190506200055781620008c8565b92915050565b600082601f83011262000575576200057462000884565b5b815162000587848260208601620004b4565b91505092915050565b600081519050620005a181620008e2565b92915050565b600081519050620005b881620008fc565b92915050565b600081519050620005cf8162000916565b92915050565b60008060008060008060c08789031215620005f557620005f462000898565b5b60006200060589828a01620004ff565b96505060206200061889828a0162000546565b95505060406200062b89828a01620005be565b94505060606200063e89828a01620005a7565b935050608087015167ffffffffffffffff81111562000662576200066162000893565b5b6200067089828a0162000516565b92505060a06200068389828a0162000590565b9150509295509295509295565b60006200069c620006af565b9050620006aa8282620007f0565b919050565b6000604051905090565b600067ffffffffffffffff821115620006d757620006d662000855565b5b602082029050919050565b600067ffffffffffffffff8211156200070057620006ff62000855565b5b6200070b826200089d565b9050602081019050919050565b6000620007258262000736565b9050919050565b6000819050919050565b600073ffffffffffffffffffffffffffffffffffffffff82169050919050565b6000819050919050565b600063ffffffff82169050919050565b600067ffffffffffffffff82169050919050565b60005b83811015620007a457808201518184015260208101905062000787565b83811115620007b4576000848401525b50505050565b60006002820490506001821680620007d357607f821691505b60208210811415620007ea57620007e962000826565b5b50919050565b620007fb826200089d565b810181811067ffffffffffffffff821117156200081d576200081c62000855565b5b80604052505050565b7f4e487b7100000000000000000000000000000000000000000000000000000000600052602260045260246000fd5b7f4e487b7100000000000000000000000000000000000000000000000000000000600052604160045260246000fd5b600080fd5b600080fd5b600080fd5b600080fd5b600080fd5b6000601f19601f8301169050919050565b620008b98162000718565b8114620008c557600080fd5b50565b620008d3816200072c565b8114620008df57600080fd5b50565b620008ed8162000756565b8114620008f957600080fd5b50565b620009078162000760565b81146200091357600080fd5b50565b620009218162000770565b81146200092d57600080fd5b50565b60805160601c60a05160601c60c05160e05160c01c6101005160e01c61384a620009886000396000610f3601526000610f1301526000610ef201526000610eb601526000818161087901526108cd015261384a6000f3fe60806040526004361061014b5760003560e01c806370a08231116100b6578063a51cccf31161006f578063a51cccf31461047e578063aa152491146104bb578063b88d4fde146104d9578063c87b56dd14610502578063e985e9c51461053f578063f2fde38b1461057c5761014b565b806370a0823114610380578063715018a6146103bd5780637a5caab3146103d45780638da5cb5b146103ff57806395d89b411461042a578063a22cb465146104555761014b565b80633af25975116101085780633af25975146102705780633ccfd60b146102ad57806342842e0e146102c45780635dacf5f4146102ed5780636352211e146103185780636e02007d146103555761014b565b806301ffc9a71461015057806306fdde031461018d578063081812fc146101b8578063095ea7b3146101f55780631fe543e31461021e57806323b872dd14610247575b600080fd5b34801561015c57600080fd5b50610177600480360381019061017291906126d4565b6105a5565b6040516101849190612c6e565b60405180910390f35b34801561019957600080fd5b506101a2610687565b6040516101af9190612d20565b60405180910390f35b3480156101c457600080fd5b506101df60048036038101906101da919061272e565b610719565b6040516101ec9190612bc3565b60405180910390f35b34801561020157600080fd5b5061021c60048036038101906102179190612694565b61075f565b005b34801561022a57600080fd5b5061024560048036038101906102409190612788565b610877565b005b34801561025357600080fd5b5061026e6004803603810190610269919061257e565b610937565b005b34801561027c57600080fd5b506102976004803603810190610292919061272e565b610997565b6040516102a49190612d20565b60405180910390f35b3480156102b957600080fd5b506102c2610a47565b005b3480156102d057600080fd5b506102eb60048036038101906102e6919061257e565b610afb565b005b3480156102f957600080fd5b50610302610b1b565b60405161030f9190612c53565b60405180910390f35b34801561032457600080fd5b5061033f600480360381019061033a919061272e565b610b46565b60405161034c9190612bc3565b60405180910390f35b34801561036157600080fd5b5061036a610bf8565b6040516103779190612f02565b60405180910390f35b34801561038c57600080fd5b506103a760048036038101906103a29190612511565b610c02565b6040516103b49190612f02565b60405180910390f35b3480156103c957600080fd5b506103d2610cba565b005b3480156103e057600080fd5b506103e9610cce565b6040516103f69190612f02565b60405180910390f35b34801561040b57600080fd5b50610414610cd8565b6040516104219190612bc3565b60405180910390f35b34801561043657600080fd5b5061043f610d02565b60405161044c9190612d20565b60405180910390f35b34801561046157600080fd5b5061047c60048036038101906104779190612654565b610d94565b005b34801561048a57600080fd5b506104a560048036038101906104a0919061272e565b610daa565b6040516104b29190612cdc565b60405180910390f35b6104c3610e76565b6040516104d09190612f02565b60405180910390f35b3480156104e557600080fd5b5061050060048036038101906104fb91906125d1565b611058565b005b34801561050e57600080fd5b506105296004803603810190610524919061272e565b6110ba565b6040516105369190612d20565b60405180910390f35b34801561054b57600080fd5b506105666004803603810190610561919061253e565b6111cd565b6040516105739190612c6e565b60405180910390f35b34801561058857600080fd5b506105a3600480360381019061059e9190612511565b611261565b005b60007f80ac58cd000000000000000000000000000000000000000000000000000000007bffffffffffffffffffffffffffffffffffffffffffffffffffffffff1916827bffffffffffffffffffffffffffffffffffffffffffffffffffffffff1916148061067057507f5b5e139f000000000000000000000000000000000000000000000000000000007bffffffffffffffffffffffffffffffffffffffffffffffffffffffff1916827bffffffffffffffffffffffffffffffffffffffffffffffffffffffff1916145b80610680575061067f826112e5565b5b9050919050565b606060008054610696906131ec565b80601f01602080910402602001604051908101604052809291908181526020018280546106c2906131ec565b801561070f5780601f106106e45761010080835404028352916020019161070f565b820191906000526020600020905b8154815290600101906020018083116106f257829003601f168201915b5050505050905090565b60006107248261134f565b6004600083815260200190815260200160002060009054906101000a900473ffffffffffffffffffffffffffffffffffffffff169050919050565b600061076a82610b46565b90508073ffffffffffffffffffffffffffffffffffffffff168373ffffffffffffffffffffffffffffffffffffffff1614156107db576040517f08c379a00000000000000000000000000000000000000000000000000000000081526004016107d290612ec2565b60405180910390fd5b8073ffffffffffffffffffffffffffffffffffffffff166107fa61139a565b73ffffffffffffffffffffffffffffffffffffffff16148061082957506108288161082361139a565b6111cd565b5b610868576040517f08c379a000000000000000000000000000000000000000000000000000000000815260040161085f90612e42565b60405180910390fd5b61087283836113a2565b505050565b7f000000000000000000000000000000000000000000000000000000000000000073ffffffffffffffffffffffffffffffffffffffff163373ffffffffffffffffffffffffffffffffffffffff161461092957337f00000000000000000000000000000000000000000000000000000000000000006040517f1cf993f4000000000000000000000000000000000000000000000000000000008152600401610920929190612bde565b60405180910390fd5b610933828261145b565b5050565b61094861094261139a565b826115e0565b610987576040517f08c379a000000000000000000000000000000000000000000000000000000000815260040161097e90612ee2565b60405180910390fd5b610992838383611675565b505050565b6060600a82815481106109ad576109ac613385565b5b9060005260206000200180546109c2906131ec565b80601f01602080910402602001604051908101604052809291908181526020018280546109ee906131ec565b8015610a3b5780601f10610a1057610100808354040283529160200191610a3b565b820191906000526020600020905b815481529060010190602001808311610a1e57829003601f168201915b50505050509050919050565b610a4f6118dc565b600047905060003373ffffffffffffffffffffffffffffffffffffffff1682604051610a7a90612bae565b60006040518083038185875af1925050503d8060008114610ab7576040519150601f19603f3d011682016040523d82523d6000602084013e610abc565b606091505b5050905080610af7576040517f3ca0a97c00000000000000000000000000000000000000000000000000000000815260040160405180910390fd5b5050565b610b1683838360405180602001604052806000815250611058565b505050565b610b236122c0565b6040518060600160405280600a8152602001601e81526020016064815250905090565b6000806002600084815260200190815260200160002060009054906101000a900473ffffffffffffffffffffffffffffffffffffffff169050600073ffffffffffffffffffffffffffffffffffffffff168173ffffffffffffffffffffffffffffffffffffffff161415610bef576040517f08c379a0000000000000000000000000000000000000000000000000000000008152600401610be690612ea2565b60405180910390fd5b80915050919050565b6000600954905090565b60008073ffffffffffffffffffffffffffffffffffffffff168273ffffffffffffffffffffffffffffffffffffffff161415610c73576040517f08c379a0000000000000000000000000000000000000000000000000000000008152600401610c6a90612e02565b60405180910390fd5b600360008373ffffffffffffffffffffffffffffffffffffffff1673ffffffffffffffffffffffffffffffffffffffff168152602001908152602001600020549050919050565b610cc26118dc565b610ccc600061195a565b565b6000600b54905090565b6000600760009054906101000a900473ffffffffffffffffffffffffffffffffffffffff16905090565b606060018054610d11906131ec565b80601f0160208091040260200160405190810160405280929190818152602001828054610d3d906131ec565b8015610d8a5780601f10610d5f57610100808354040283529160200191610d8a565b820191906000526020600020905b815481529060010190602001808311610d6d57829003601f168201915b5050505050905090565b610da6610d9f61139a565b8383611a20565b5050565b600080600090506000610dbb610b1b565b905060005b6003811015610e3e57828510158015610def5750818160038110610de757610de6613385565b5b602002015185105b15610e1157806002811115610e0757610e06613327565b5b9350505050610e71565b818160038110610e2457610e23613385565b5b602002015192508080610e369061324f565b915050610dc0565b506040517fa4b0187700000000000000000000000000000000000000000000000000000000815260040160405180910390fd5b919050565b6000600b54341015610eb4576040517f362f576f00000000000000000000000000000000000000000000000000000000815260040160405180910390fd5b7f000000000000000000000000000000000000000000000000000000000000000073ffffffffffffffffffffffffffffffffffffffff16635d3b1d307f00000000000000000000000000000000000000000000000000000000000000007f000000000000000000000000000000000000000000000000000000000000000060037f000000000000000000000000000000000000000000000000000000000000000060016040518663ffffffff1660e01b8152600401610f77959493929190612c89565b602060405180830381600087803b158015610f9157600080fd5b505af1158015610fa5573d6000803e3d6000fd5b505050506040513d601f19601f82011682018060405250810190610fc9919061275b565b9050336008600083815260200190815260200160002060006101000a81548173ffffffffffffffffffffffffffffffffffffffff021916908373ffffffffffffffffffffffffffffffffffffffff160217905550807ff873236e6cc0ecc5be1a9a35c95ee5b8d1ac4cc7bfef0cc5060391d6cc98e26b3360405161104d9190612bc3565b60405180910390a290565b61106961106361139a565b836115e0565b6110a8576040517f08c379a000000000000000000000000000000000000000000000000000000000815260040161109f90612ee2565b60405180910390fd5b6110b484848484611b8d565b50505050565b60606110c58261134f565b60006006600084815260200190815260200160002080546110e5906131ec565b80601f0160208091040260200160405190810160405280929190818152602001828054611111906131ec565b801561115e5780601f106111335761010080835404028352916020019161115e565b820191906000526020600020905b81548152906001019060200180831161114157829003601f168201915b50505050509050600061116f611be9565b90506000815114156111855781925050506111c8565b6000825111156111ba5780826040516020016111a2929190612b8a565b604051602081830303815290604052925050506111c8565b6111c384611c00565b925050505b919050565b6000600560008473ffffffffffffffffffffffffffffffffffffffff1673ffffffffffffffffffffffffffffffffffffffff16815260200190815260200160002060008373ffffffffffffffffffffffffffffffffffffffff1673ffffffffffffffffffffffffffffffffffffffff16815260200190815260200160002060009054906101000a900460ff16905092915050565b6112696118dc565b600073ffffffffffffffffffffffffffffffffffffffff168173ffffffffffffffffffffffffffffffffffffffff1614156112d9576040517f08c379a00000000000000000000000000000000000000000000000000000000081526004016112d090612d62565b60405180910390fd5b6112e28161195a565b50565b60007f01ffc9a7000000000000000000000000000000000000000000000000000000007bffffffffffffffffffffffffffffffffffffffffffffffffffffffff1916827bffffffffffffffffffffffffffffffffffffffffffffffffffffffff1916149050919050565b61135881611c68565b611397576040517f08c379a000000000000000000000000000000000000000000000000000000000815260040161138e90612ea2565b60405180910390fd5b50565b600033905090565b816004600083815260200190815260200160002060006101000a81548173ffffffffffffffffffffffffffffffffffffffff021916908373ffffffffffffffffffffffffffffffffffffffff160217905550808273ffffffffffffffffffffffffffffffffffffffff1661141583610b46565b73ffffffffffffffffffffffffffffffffffffffff167f8c5be1e5ebec7d5bd14f71427d1e84f3dd0314c0f7b2291e5b200ac8c7c3b92560405160405180910390a45050565b60006008600084815260200190815260200160002060009054906101000a900473ffffffffffffffffffffffffffffffffffffffff1690506000600954905060006064846000815181106114b2576114b1613385565b5b60200260200101516114c49190613298565b905060006114d182610daa565b90506114dd8484611cd4565b61159f83600a8360028111156114f6576114f5613327565b5b8154811061150757611506613385565b5b90600052602060002001805461151c906131ec565b80601f0160208091040260200160405190810160405280929190818152602001828054611548906131ec565b80156115955780601f1061156a57610100808354040283529160200191611595565b820191906000526020600020905b81548152906001019060200180831161157857829003601f168201915b5050505050611cf2565b7f8a269f26b688e110e9cbd887d163dab35cae678fa353a0292de532c0cac1ecdc81856040516115d0929190612cf7565b60405180910390a1505050505050565b6000806115ec83610b46565b90508073ffffffffffffffffffffffffffffffffffffffff168473ffffffffffffffffffffffffffffffffffffffff16148061162e575061162d81856111cd565b5b8061166c57508373ffffffffffffffffffffffffffffffffffffffff1661165484610719565b73ffffffffffffffffffffffffffffffffffffffff16145b91505092915050565b8273ffffffffffffffffffffffffffffffffffffffff1661169582610b46565b73ffffffffffffffffffffffffffffffffffffffff16146116eb576040517f08c379a00000000000000000000000000000000000000000000000000000000081526004016116e290612d82565b60405180910390fd5b600073ffffffffffffffffffffffffffffffffffffffff168273ffffffffffffffffffffffffffffffffffffffff16141561175b576040517f08c379a000000000000000000000000000000000000000000000000000000000815260040161175290612dc2565b60405180910390fd5b611766838383611d66565b6117716000826113a2565b6001600360008573ffffffffffffffffffffffffffffffffffffffff1673ffffffffffffffffffffffffffffffffffffffff16815260200190815260200160002060008282546117c191906130a1565b925050819055506001600360008473ffffffffffffffffffffffffffffffffffffffff1673ffffffffffffffffffffffffffffffffffffffff1681526020019081526020016000206000828254611818919061301a565b92505081905550816002600083815260200190815260200160002060006101000a81548173ffffffffffffffffffffffffffffffffffffffff021916908373ffffffffffffffffffffffffffffffffffffffff160217905550808273ffffffffffffffffffffffffffffffffffffffff168473ffffffffffffffffffffffffffffffffffffffff167fddf252ad1be2c89b69c2b068fc378daa952ba7f163c4a11628f55a4df523b3ef60405160405180910390a46118d7838383611d6b565b505050565b6118e461139a565b73ffffffffffffffffffffffffffffffffffffffff16611902610cd8565b73ffffffffffffffffffffffffffffffffffffffff1614611958576040517f08c379a000000000000000000000000000000000000000000000000000000000815260040161194f90612e82565b60405180910390fd5b565b6000600760009054906101000a900473ffffffffffffffffffffffffffffffffffffffff16905081600760006101000a81548173ffffffffffffffffffffffffffffffffffffffff021916908373ffffffffffffffffffffffffffffffffffffffff1602179055508173ffffffffffffffffffffffffffffffffffffffff168173ffffffffffffffffffffffffffffffffffffffff167f8be0079c531659141344cd1fd0a4f28419497f9722a3daafe3b4186f6b6457e060405160405180910390a35050565b8173ffffffffffffffffffffffffffffffffffffffff168373ffffffffffffffffffffffffffffffffffffffff161415611a8f576040517f08c379a0000000000000000000000000000000000000000000000000000000008152600401611a8690612de2565b60405180910390fd5b80600560008573ffffffffffffffffffffffffffffffffffffffff1673ffffffffffffffffffffffffffffffffffffffff16815260200190815260200160002060008473ffffffffffffffffffffffffffffffffffffffff1673ffffffffffffffffffffffffffffffffffffffff16815260200190815260200160002060006101000a81548160ff0219169083151502179055508173ffffffffffffffffffffffffffffffffffffffff168373ffffffffffffffffffffffffffffffffffffffff167f17307eab39ab6107e8899845ad3d59bd9653f200f220920489ca2b5937696c3183604051611b809190612c6e565b60405180910390a3505050565b611b98848484611675565b611ba484848484611d70565b611be3576040517f08c379a0000000000000000000000000000000000000000000000000000000008152600401611bda90612d42565b60405180910390fd5b50505050565b606060405180602001604052806000815250905090565b6060611c0b8261134f565b6000611c15611be9565b90506000815111611c355760405180602001604052806000815250611c60565b80611c3f84611f07565b604051602001611c50929190612b8a565b6040516020818303038152906040525b915050919050565b60008073ffffffffffffffffffffffffffffffffffffffff166002600084815260200190815260200160002060009054906101000a900473ffffffffffffffffffffffffffffffffffffffff1673ffffffffffffffffffffffffffffffffffffffff1614159050919050565b611cee828260405180602001604052806000815250612068565b5050565b611cfb82611c68565b611d3a576040517f08c379a0000000000000000000000000000000000000000000000000000000008152600401611d3190612e22565b60405180910390fd5b80600660008481526020019081526020016000209080519060200190611d619291906122e2565b505050565b505050565b505050565b6000611d918473ffffffffffffffffffffffffffffffffffffffff166120c3565b15611efa578373ffffffffffffffffffffffffffffffffffffffff1663150b7a02611dba61139a565b8786866040518563ffffffff1660e01b8152600401611ddc9493929190612c07565b602060405180830381600087803b158015611df657600080fd5b505af1925050508015611e2757506040513d601f19601f82011682018060405250810190611e249190612701565b60015b611eaa573d8060008114611e57576040519150601f19603f3d011682016040523d82523d6000602084013e611e5c565b606091505b50600081511415611ea2576040517f08c379a0000000000000000000000000000000000000000000000000000000008152600401611e9990612d42565b60405180910390fd5b805181602001fd5b63150b7a0260e01b7bffffffffffffffffffffffffffffffffffffffffffffffffffffffff1916817bffffffffffffffffffffffffffffffffffffffffffffffffffffffff191614915050611eff565b600190505b949350505050565b60606000821415611f4f576040518060400160405280600181526020017f30000000000000000000000000000000000000000000000000000000000000008152509050612063565b600082905060005b60008214611f81578080611f6a9061324f565b915050600a82611f7a9190613070565b9150611f57565b60008167ffffffffffffffff811115611f9d57611f9c6133b4565b5b6040519080825280601f01601f191660200182016040528015611fcf5781602001600182028036833780820191505090505b5090505b6000851461205c57600182611fe891906130a1565b9150600a85611ff79190613298565b6030612003919061301a565b60f81b81838151811061201957612018613385565b5b60200101907effffffffffffffffffffffffffffffffffffffffffffffffffffffffffffff1916908160001a905350600a856120559190613070565b9450611fd3565b8093505050505b919050565b61207283836120e6565b61207f6000848484611d70565b6120be576040517f08c379a00000000000000000000000000000000000000000000000000000000081526004016120b590612d42565b60405180910390fd5b505050565b6000808273ffffffffffffffffffffffffffffffffffffffff163b119050919050565b600073ffffffffffffffffffffffffffffffffffffffff168273ffffffffffffffffffffffffffffffffffffffff161415612156576040517f08c379a000000000000000000000000000000000000000000000000000000000815260040161214d90612e62565b60405180910390fd5b61215f81611c68565b1561219f576040517f08c379a000000000000000000000000000000000000000000000000000000000815260040161219690612da2565b60405180910390fd5b6121ab60008383611d66565b6001600360008473ffffffffffffffffffffffffffffffffffffffff1673ffffffffffffffffffffffffffffffffffffffff16815260200190815260200160002060008282546121fb919061301a565b92505081905550816002600083815260200190815260200160002060006101000a81548173ffffffffffffffffffffffffffffffffffffffff021916908373ffffffffffffffffffffffffffffffffffffffff160217905550808273ffffffffffffffffffffffffffffffffffffffff16600073ffffffffffffffffffffffffffffffffffffffff167fddf252ad1be2c89b69c2b068fc378daa952ba7f163c4a11628f55a4df523b3ef60405160405180910390a46122bc60008383611d6b565b5050565b6040518060600160405280600390602082028036833780820191505090505090565b8280546122ee906131ec565b90600052602060002090601f0160209004810192826123105760008555612357565b82601f1061232957805160ff1916838001178555612357565b82800160010185558215612357579182015b8281111561235657825182559160200191906001019061233b565b5b5090506123649190612368565b5090565b5b80821115612381576000816000905550600101612369565b5090565b600061239861239384612f42565b612f1d565b905080838252602082019050828560208602820111156123bb576123ba6133e8565b5b60005b858110156123eb57816123d188826124e7565b8452602084019350602083019250506001810190506123be565b5050509392505050565b600061240861240384612f6e565b612f1d565b905082815260208101848484011115612424576124236133ed565b5b61242f8482856131aa565b509392505050565b600081359050612446816137b8565b92915050565b600082601f830112612461576124606133e3565b5b8135612471848260208601612385565b91505092915050565b600081359050612489816137cf565b92915050565b60008135905061249e816137e6565b92915050565b6000815190506124b3816137e6565b92915050565b600082601f8301126124ce576124cd6133e3565b5b81356124de8482602086016123f5565b91505092915050565b6000813590506124f6816137fd565b92915050565b60008151905061250b816137fd565b92915050565b600060208284031215612527576125266133f7565b5b600061253584828501612437565b91505092915050565b60008060408385031215612555576125546133f7565b5b600061256385828601612437565b925050602061257485828601612437565b9150509250929050565b600080600060608486031215612597576125966133f7565b5b60006125a586828701612437565b93505060206125b686828701612437565b92505060406125c7868287016124e7565b9150509250925092565b600080600080608085870312156125eb576125ea6133f7565b5b60006125f987828801612437565b945050602061260a87828801612437565b935050604061261b878288016124e7565b925050606085013567ffffffffffffffff81111561263c5761263b6133f2565b5b612648878288016124b9565b91505092959194509250565b6000806040838503121561266b5761266a6133f7565b5b600061267985828601612437565b925050602061268a8582860161247a565b9150509250929050565b600080604083850312156126ab576126aa6133f7565b5b60006126b985828601612437565b92505060206126ca858286016124e7565b9150509250929050565b6000602082840312156126ea576126e96133f7565b5b60006126f88482850161248f565b91505092915050565b600060208284031215612717576127166133f7565b5b6000612725848285016124a4565b91505092915050565b600060208284031215612744576127436133f7565b5b6000612752848285016124e7565b91505092915050565b600060208284031215612771576127706133f7565b5b600061277f848285016124fc565b91505092915050565b6000806040838503121561279f5761279e6133f7565b5b60006127ad858286016124e7565b925050602083013567ffffffffffffffff8111156127ce576127cd6133f2565b5b6127da8582860161244c565b9150509250929050565b60006127f08383612b4e565b60208301905092915050565b612805816130d5565b82525050565b61281481612fa9565b61281e8184612fd7565b925061282982612f9f565b8060005b8381101561285a57815161284187826127e4565b965061284c83612fca565b92505060018101905061282d565b505050505050565b61286b816130e7565b82525050565b61287a816130f3565b82525050565b600061288b82612fb4565b6128958185612fe2565b93506128a58185602086016131b9565b6128ae816133fc565b840191505092915050565b6128c281613198565b82525050565b60006128d382612fbf565b6128dd8185612ffe565b93506128ed8185602086016131b9565b6128f6816133fc565b840191505092915050565b600061290c82612fbf565b612916818561300f565b93506129268185602086016131b9565b80840191505092915050565b600061293f603283612ffe565b915061294a8261340d565b604082019050919050565b6000612962602683612ffe565b915061296d8261345c565b604082019050919050565b6000612985602583612ffe565b9150612990826134ab565b604082019050919050565b60006129a8601c83612ffe565b91506129b3826134fa565b602082019050919050565b60006129cb602483612ffe565b91506129d682613523565b604082019050919050565b60006129ee601983612ffe565b91506129f982613572565b602082019050919050565b6000612a11602983612ffe565b9150612a1c8261359b565b604082019050919050565b6000612a34602e83612ffe565b9150612a3f826135ea565b604082019050919050565b6000612a57603e83612ffe565b9150612a6282613639565b604082019050919050565b6000612a7a602083612ffe565b9150612a8582613688565b602082019050919050565b6000612a9d602083612ffe565b9150612aa8826136b1565b602082019050919050565b6000612ac0601883612ffe565b9150612acb826136da565b602082019050919050565b6000612ae3602183612ffe565b9150612aee82613703565b604082019050919050565b6000612b06600083612ff3565b9150612b1182613752565b600082019050919050565b6000612b29602e83612ffe565b9150612b3482613755565b604082019050919050565b612b488161313c565b82525050565b612b578161316a565b82525050565b612b668161316a565b82525050565b612b7581613174565b82525050565b612b8481613184565b82525050565b6000612b968285612901565b9150612ba28284612901565b91508190509392505050565b6000612bb982612af9565b9150819050919050565b6000602082019050612bd860008301846127fc565b92915050565b6000604082019050612bf360008301856127fc565b612c0060208301846127fc565b9392505050565b6000608082019050612c1c60008301876127fc565b612c2960208301866127fc565b612c366040830185612b5d565b8181036060830152612c488184612880565b905095945050505050565b6000606082019050612c68600083018461280b565b92915050565b6000602082019050612c836000830184612862565b92915050565b600060a082019050612c9e6000830188612871565b612cab6020830187612b7b565b612cb86040830186612b3f565b612cc56060830185612b6c565b612cd26080830184612b6c565b9695505050505050565b6000602082019050612cf160008301846128b9565b92915050565b6000604082019050612d0c60008301856128b9565b612d1960208301846127fc565b9392505050565b60006020820190508181036000830152612d3a81846128c8565b905092915050565b60006020820190508181036000830152612d5b81612932565b9050919050565b60006020820190508181036000830152612d7b81612955565b9050919050565b60006020820190508181036000830152612d9b81612978565b9050919050565b60006020820190508181036000830152612dbb8161299b565b9050919050565b60006020820190508181036000830152612ddb816129be565b9050919050565b60006020820190508181036000830152612dfb816129e1565b9050919050565b60006020820190508181036000830152612e1b81612a04565b9050919050565b60006020820190508181036000830152612e3b81612a27565b9050919050565b60006020820190508181036000830152612e5b81612a4a565b9050919050565b60006020820190508181036000830152612e7b81612a6d565b9050919050565b60006020820190508181036000830152612e9b81612a90565b9050919050565b60006020820190508181036000830152612ebb81612ab3565b9050919050565b60006020820190508181036000830152612edb81612ad6565b9050919050565b60006020820190508181036000830152612efb81612b1c565b9050919050565b6000602082019050612f176000830184612b5d565b92915050565b6000612f27612f38565b9050612f33828261321e565b919050565b6000604051905090565b600067ffffffffffffffff821115612f5d57612f5c6133b4565b5b602082029050602081019050919050565b600067ffffffffffffffff821115612f8957612f886133b4565b5b612f92826133fc565b9050602081019050919050565b6000819050919050565b600060039050919050565b600081519050919050565b600081519050919050565b6000602082019050919050565b600081905092915050565b600082825260208201905092915050565b600081905092915050565b600082825260208201905092915050565b600081905092915050565b60006130258261316a565b91506130308361316a565b9250827fffffffffffffffffffffffffffffffffffffffffffffffffffffffffffffffff03821115613065576130646132c9565b5b828201905092915050565b600061307b8261316a565b91506130868361316a565b925082613096576130956132f8565b5b828204905092915050565b60006130ac8261316a565b91506130b78361316a565b9250828210156130ca576130c96132c9565b5b828203905092915050565b60006130e08261314a565b9050919050565b60008115159050919050565b6000819050919050565b60007fffffffff0000000000000000000000000000000000000000000000000000000082169050919050565b6000819050613137826137a4565b919050565b600061ffff82169050919050565b600073ffffffffffffffffffffffffffffffffffffffff82169050919050565b6000819050919050565b600063ffffffff82169050919050565b600067ffffffffffffffff82169050919050565b60006131a382613129565b9050919050565b82818337600083830152505050565b60005b838110156131d75780820151818401526020810190506131bc565b838111156131e6576000848401525b50505050565b6000600282049050600182168061320457607f821691505b6020821081141561321857613217613356565b5b50919050565b613227826133fc565b810181811067ffffffffffffffff82111715613246576132456133b4565b5b80604052505050565b600061325a8261316a565b91507fffffffffffffffffffffffffffffffffffffffffffffffffffffffffffffffff82141561328d5761328c6132c9565b5b600182019050919050565b60006132a38261316a565b91506132ae8361316a565b9250826132be576132bd6132f8565b5b828206905092915050565b7f4e487b7100000000000000000000000000000000000000000000000000000000600052601160045260246000fd5b7f4e487b7100000000000000000000000000000000000000000000000000000000600052601260045260246000fd5b7f4e487b7100000000000000000000000000000000000000000000000000000000600052602160045260246000fd5b7f4e487b7100000000000000000000000000000000000000000000000000000000600052602260045260246000fd5b7f4e487b7100000000000000000000000000000000000000000000000000000000600052603260045260246000fd5b7f4e487b7100000000000000000000000000000000000000000000000000000000600052604160045260246000fd5b600080fd5b600080fd5b600080fd5b600080fd5b600080fd5b6000601f19601f8301169050919050565b7f4552433732313a207472616e7366657220746f206e6f6e20455243373231526560008201527f63656976657220696d706c656d656e7465720000000000000000000000000000602082015250565b7f4f776e61626c653a206e6577206f776e657220697320746865207a65726f206160008201527f6464726573730000000000000000000000000000000000000000000000000000602082015250565b7f4552433732313a207472616e736665722066726f6d20696e636f72726563742060008201527f6f776e6572000000000000000000000000000000000000000000000000000000602082015250565b7f4552433732313a20746f6b656e20616c7265616479206d696e74656400000000600082015250565b7f4552433732313a207472616e7366657220746f20746865207a65726f2061646460008201527f7265737300000000000000000000000000000000000000000000000000000000602082015250565b7f4552433732313a20617070726f766520746f2063616c6c657200000000000000600082015250565b7f4552433732313a2061646472657373207a65726f206973206e6f74206120766160008201527f6c6964206f776e65720000000000000000000000000000000000000000000000602082015250565b7f45524337323155524953746f726167653a2055524920736574206f66206e6f6e60008201527f6578697374656e7420746f6b656e000000000000000000000000000000000000602082015250565b7f4552433732313a20617070726f76652063616c6c6572206973206e6f7420746f60008201527f6b656e206f776e6572206e6f7220617070726f76656420666f7220616c6c0000602082015250565b7f4552433732313a206d696e7420746f20746865207a65726f2061646472657373600082015250565b7f4f776e61626c653a2063616c6c6572206973206e6f7420746865206f776e6572600082015250565b7f4552433732313a20696e76616c696420746f6b656e2049440000000000000000600082015250565b7f4552433732313a20617070726f76616c20746f2063757272656e74206f776e6560008201527f7200000000000000000000000000000000000000000000000000000000000000602082015250565b50565b7f4552433732313a2063616c6c6572206973206e6f7420746f6b656e206f776e6560008201527f72206e6f7220617070726f766564000000000000000000000000000000000000602082015250565b600381106137b5576137b4613327565b5b50565b6137c1816130d5565b81146137cc57600080fd5b50565b6137d8816130e7565b81146137e357600080fd5b50565b6137ef816130fd565b81146137fa57600080fd5b50565b6138068161316a565b811461381157600080fd5b5056fea2646970667358221220d634bb814530880ed95eefa94251b6d67c29d8684cbfd1f4c827b42f105615b564736f6c63430008070033",
  "devdoc": {
    "kind": "dev",
    "methods": {
      "approve(address,uint256)": {
        "details": "See {IERC721-approve}."
      },
      "balanceOf(address)": {
        "details": "See {IERC721-balanceOf}."
      },
      "getApproved(uint256)": {
        "details": "See {IERC721-getApproved}."
      },
      "isApprovedForAll(address,address)": {
        "details": "See {IERC721-isApprovedForAll}."
      },
      "name()": {
        "details": "See {IERC721Metadata-name}."
      },
      "owner()": {
        "details": "Returns the address of the current owner."
      },
      "ownerOf(uint256)": {
        "details": "See {IERC721-ownerOf}."
      },
      "renounceOwnership()": {
        "details": "Leaves the contract without owner. It will not be possible to call `onlyOwner` functions anymore. Can only be called by the current owner. NOTE: Renouncing ownership will leave the contract without an owner, thereby removing any functionality that is only available to the owner."
      },
      "safeTransferFrom(address,address,uint256)": {
        "details": "See {IERC721-safeTransferFrom}."
      },
      "safeTransferFrom(address,address,uint256,bytes)": {
        "details": "See {IERC721-safeTransferFrom}."
      },
      "setApprovalForAll(address,bool)": {
        "details": "See {IERC721-setApprovalForAll}."
      },
      "supportsInterface(bytes4)": {
        "details": "See {IERC165-supportsInterface}."
      },
      "symbol()": {
        "details": "See {IERC721Metadata-symbol}."
      },
      "tokenURI(uint256)": {
        "details": "See {IERC721Metadata-tokenURI}."
      },
      "transferFrom(address,address,uint256)": {
        "details": "See {IERC721-transferFrom}."
      },
      "transferOwnership(address)": {
        "details": "Transfers ownership of the contract to a new account (`newOwner`). Can only be called by the current owner."
      }
    },
    "version": 1
  },
  "userdoc": {
    "kind": "user",
    "methods": {},
    "version": 1
  },
  "storageLayout": {
    "storage": [
      {
        "astId": 959,
        "contract": "contracts/RandomIPFSNft.sol:RandomIPFSNft",
        "label": "_name",
        "offset": 0,
        "slot": "0",
        "type": "t_string_storage"
      },
      {
        "astId": 961,
        "contract": "contracts/RandomIPFSNft.sol:RandomIPFSNft",
        "label": "_symbol",
        "offset": 0,
        "slot": "1",
        "type": "t_string_storage"
      },
      {
        "astId": 965,
        "contract": "contracts/RandomIPFSNft.sol:RandomIPFSNft",
        "label": "_owners",
        "offset": 0,
        "slot": "2",
        "type": "t_mapping(t_uint256,t_address)"
      },
      {
        "astId": 969,
        "contract": "contracts/RandomIPFSNft.sol:RandomIPFSNft",
        "label": "_balances",
        "offset": 0,
        "slot": "3",
        "type": "t_mapping(t_address,t_uint256)"
      },
      {
        "astId": 973,
        "contract": "contracts/RandomIPFSNft.sol:RandomIPFSNft",
        "label": "_tokenApprovals",
        "offset": 0,
        "slot": "4",
        "type": "t_mapping(t_uint256,t_address)"
      },
      {
        "astId": 979,
        "contract": "contracts/RandomIPFSNft.sol:RandomIPFSNft",
        "label": "_operatorApprovals",
        "offset": 0,
        "slot": "5",
        "type": "t_mapping(t_address,t_mapping(t_address,t_bool))"
      },
      {
        "astId": 1947,
        "contract": "contracts/RandomIPFSNft.sol:RandomIPFSNft",
        "label": "_tokenURIs",
        "offset": 0,
        "slot": "6",
        "type": "t_mapping(t_uint256,t_string_storage)"
      },
      {
        "astId": 828,
        "contract": "contracts/RandomIPFSNft.sol:RandomIPFSNft",
        "label": "_owner",
        "offset": 0,
        "slot": "7",
        "type": "t_address"
      },
      {
        "astId": 2691,
        "contract": "contracts/RandomIPFSNft.sol:RandomIPFSNft",
        "label": "s_requestIdToSender",
        "offset": 0,
        "slot": "8",
        "type": "t_mapping(t_uint256,t_address)"
      },
      {
        "astId": 2708,
        "contract": "contracts/RandomIPFSNft.sol:RandomIPFSNft",
        "label": "s_tokenCounter",
        "offset": 0,
        "slot": "9",
        "type": "t_uint256"
      },
      {
        "astId": 2711,
        "contract": "contracts/RandomIPFSNft.sol:RandomIPFSNft",
        "label": "s_dogTokenUris",
        "offset": 0,
        "slot": "10",
        "type": "t_array(t_string_storage)dyn_storage"
      },
      {
        "astId": 2713,
        "contract": "contracts/RandomIPFSNft.sol:RandomIPFSNft",
        "label": "i_mintFee",
        "offset": 0,
        "slot": "11",
        "type": "t_uint256"
      }
    ],
    "types": {
      "t_address": {
        "encoding": "inplace",
        "label": "address",
        "numberOfBytes": "20"
      },
      "t_array(t_string_storage)dyn_storage": {
        "base": "t_string_storage",
        "encoding": "dynamic_array",
        "label": "string[]",
        "numberOfBytes": "32"
      },
      "t_bool": {
        "encoding": "inplace",
        "label": "bool",
        "numberOfBytes": "1"
      },
      "t_mapping(t_address,t_bool)": {
        "encoding": "mapping",
        "key": "t_address",
        "label": "mapping(address => bool)",
        "numberOfBytes": "32",
        "value": "t_bool"
      },
      "t_mapping(t_address,t_mapping(t_address,t_bool))": {
        "encoding": "mapping",
        "key": "t_address",
        "label": "mapping(address => mapping(address => bool))",
        "numberOfBytes": "32",
        "value": "t_mapping(t_address,t_bool)"
      },
      "t_mapping(t_address,t_uint256)": {
        "encoding": "mapping",
        "key": "t_address",
        "label": "mapping(address => uint256)",
        "numberOfBytes": "32",
        "value": "t_uint256"
      },
      "t_mapping(t_uint256,t_address)": {
        "encoding": "mapping",
        "key": "t_uint256",
        "label": "mapping(uint256 => address)",
        "numberOfBytes": "32",
        "value": "t_address"
      },
      "t_mapping(t_uint256,t_string_storage)": {
        "encoding": "mapping",
        "key": "t_uint256",
        "label": "mapping(uint256 => string)",
        "numberOfBytes": "32",
        "value": "t_string_storage"
      },
      "t_string_storage": {
        "encoding": "bytes",
        "label": "string",
        "numberOfBytes": "32"
      },
      "t_uint256": {
        "encoding": "inplace",
        "label": "uint256",
        "numberOfBytes": "32"
      }
    }
  }
}